{
  "_format": "hh-sol-artifact-1",
  "contractName": "Spoke",
  "sourceName": "contracts/Spoke.sol",
  "abi": [
    {
      "inputs": [],
      "stateMutability": "nonpayable",
      "type": "constructor"
    },
    {
      "inputs": [],
      "name": "FailedCall",
      "type": "error"
    },
    {
      "inputs": [],
      "name": "GasRequired",
      "type": "error"
    },
    {
      "inputs": [
        {
          "internalType": "uint256",
          "name": "balance",
          "type": "uint256"
        },
        {
          "internalType": "uint256",
          "name": "needed",
          "type": "uint256"
        }
      ],
      "name": "InsufficientBalance",
      "type": "error"
    },
    {
      "inputs": [],
      "name": "InvalidAddress",
      "type": "error"
    },
    {
      "inputs": [],
      "name": "InvalidArrayLength",
      "type": "error"
    },
    {
      "inputs": [],
      "name": "InvalidDelegate",
      "type": "error"
    },
    {
      "inputs": [],
      "name": "InvalidDestinationChain",
      "type": "error"
    },
    {
      "inputs": [],
      "name": "InvalidEndpointCall",
      "type": "error"
    },
    {
      "inputs": [],
      "name": "InvalidFillType",
      "type": "error"
    },
    {
      "inputs": [],
      "name": "InvalidInitialization",
      "type": "error"
    },
    {
      "inputs": [],
      "name": "InvalidNativeAmount",
      "type": "error"
    },
    {
      "inputs": [
        {
          "internalType": "uint16",
          "name": "optionType",
          "type": "uint16"
        }
      ],
      "name": "InvalidOptionType",
      "type": "error"
    },
    {
      "inputs": [],
      "name": "InvalidPostHookProvided",
      "type": "error"
    },
    {
      "inputs": [],
      "name": "InvalidProvider",
      "type": "error"
    },
    {
      "inputs": [],
      "name": "InvalidSourceChain",
      "type": "error"
    },
    {
      "inputs": [],
      "name": "LengthMismatch",
      "type": "error"
    },
    {
      "inputs": [],
      "name": "LzTokenUnavailable",
      "type": "error"
    },
    {
      "inputs": [
        {
          "internalType": "uint32",
          "name": "eid",
          "type": "uint32"
        }
      ],
      "name": "NoPeer",
      "type": "error"
    },
    {
      "inputs": [],
      "name": "NotApprovedByGateway",
      "type": "error"
    },
    {
      "inputs": [
        {
          "internalType": "uint256",
          "name": "msgValue",
          "type": "uint256"
        }
      ],
      "name": "NotEnoughNative",
      "type": "error"
    },
    {
      "inputs": [],
      "name": "NotInitializing",
      "type": "error"
    },
    {
      "inputs": [],
      "name": "OnlyAdmin",
      "type": "error"
    },
    {
      "inputs": [
        {
          "internalType": "address",
          "name": "addr",
          "type": "address"
        }
      ],
      "name": "OnlyEndpoint",
      "type": "error"
    },
    {
      "inputs": [],
      "name": "OnlyFeeCollector",
      "type": "error"
    },
    {
      "inputs": [],
      "name": "OnlyFillerCanSettle",
      "type": "error"
    },
    {
      "inputs": [
        {
          "internalType": "uint32",
          "name": "eid",
          "type": "uint32"
        },
        {
          "internalType": "bytes32",
          "name": "sender",
          "type": "bytes32"
        }
      ],
      "name": "OnlyPeer",
      "type": "error"
    },
    {
      "inputs": [],
      "name": "OnlyRelayer",
      "type": "error"
    },
    {
      "inputs": [],
      "name": "OnlyTrustedAddress",
      "type": "error"
    },
    {
      "inputs": [],
      "name": "OrderAlreadyExists",
      "type": "error"
    },
    {
      "inputs": [],
      "name": "OrderAlreadySettled",
      "type": "error"
    },
    {
      "inputs": [],
      "name": "OrderExpired",
      "type": "error"
    },
    {
      "inputs": [],
      "name": "OrderNotExpired",
      "type": "error"
    },
    {
      "inputs": [],
      "name": "OrderNotSettled",
      "type": "error"
    },
    {
      "inputs": [],
      "name": "OrderStateNotCreated",
      "type": "error"
    },
    {
      "inputs": [
        {
          "internalType": "address",
          "name": "owner",
          "type": "address"
        }
      ],
      "name": "OwnableInvalidOwner",
      "type": "error"
    },
    {
      "inputs": [
        {
          "internalType": "address",
          "name": "account",
          "type": "address"
        }
      ],
      "name": "OwnableUnauthorizedAccount",
      "type": "error"
    },
    {
      "inputs": [],
      "name": "ReentrancyGuardReentrantCall",
      "type": "error"
    },
    {
      "inputs": [
        {
          "internalType": "uint8",
          "name": "bits",
          "type": "uint8"
        },
        {
          "internalType": "uint256",
          "name": "value",
          "type": "uint256"
        }
      ],
      "name": "SafeCastOverflowedUintDowncast",
      "type": "error"
    },
    {
      "inputs": [
        {
          "internalType": "address",
          "name": "token",
          "type": "address"
        }
      ],
      "name": "SafeERC20FailedOperation",
      "type": "error"
    },
    {
      "inputs": [],
      "name": "UnauthorizedOriginAddress",
      "type": "error"
    },
    {
      "inputs": [],
      "name": "UnauthorizedOriginEndpoint",
      "type": "error"
    },
    {
      "inputs": [],
      "name": "UnexpectedNativeToken",
      "type": "error"
    },
    {
      "inputs": [],
      "name": "UntrustedChain",
      "type": "error"
    },
    {
      "inputs": [],
      "name": "ZeroAddress",
      "type": "error"
    },
    {
      "inputs": [],
      "name": "ZeroStringLength",
      "type": "error"
    },
    {
      "anonymous": false,
      "inputs": [
        {
          "indexed": true,
          "internalType": "address",
          "name": "feeCollector",
          "type": "address"
        },
        {
          "indexed": true,
          "internalType": "address",
          "name": "token",
          "type": "address"
        },
        {
          "indexed": true,
          "internalType": "uint256",
          "name": "amount",
          "type": "uint256"
        }
      ],
      "name": "FeesCollected",
      "type": "event"
    },
    {
      "anonymous": false,
      "inputs": [
        {
          "indexed": false,
          "internalType": "uint64",
          "name": "version",
          "type": "uint64"
        }
      ],
      "name": "Initialized",
      "type": "event"
    },
    {
      "anonymous": false,
      "inputs": [
        {
          "indexed": true,
          "internalType": "bytes32",
          "name": "orderHash",
          "type": "bytes32"
        },
        {
          "components": [
            {
              "internalType": "address",
              "name": "fromAddress",
              "type": "address"
            },
            {
              "internalType": "string",
              "name": "toAddress",
              "type": "string"
            },
            {
              "internalType": "address",
              "name": "filler",
              "type": "address"
            },
            {
              "internalType": "address",
              "name": "fromToken",
              "type": "address"
            },
            {
              "internalType": "address",
              "name": "toToken",
              "type": "address"
            },
            {
              "internalType": "uint256",
              "name": "expiry",
              "type": "uint256"
            },
            {
              "internalType": "uint256",
              "name": "fromAmount",
              "type": "uint256"
            },
            {
              "internalType": "uint256",
              "name": "fillAmount",
              "type": "uint256"
            },
            {
              "internalType": "uint256",
              "name": "feeRate",
              "type": "uint256"
            },
            {
              "internalType": "uint256",
              "name": "fromChain",
              "type": "uint256"
            },
            {
              "internalType": "uint256",
              "name": "toChain",
              "type": "uint256"
            },
            {
              "internalType": "bytes32",
              "name": "postHookHash",
              "type": "bytes32"
            }
          ],
          "indexed": false,
          "internalType": "struct ISpoke.Order",
          "name": "order",
          "type": "tuple"
        }
      ],
      "name": "OrderCreated",
      "type": "event"
    },
    {
      "anonymous": false,
      "inputs": [
        {
          "indexed": true,
          "internalType": "bytes32",
          "name": "orderHash",
          "type": "bytes32"
        },
        {
          "components": [
            {
              "internalType": "address",
              "name": "fromAddress",
              "type": "address"
            },
            {
              "internalType": "string",
              "name": "toAddress",
              "type": "string"
            },
            {
              "internalType": "address",
              "name": "filler",
              "type": "address"
            },
            {
              "internalType": "address",
              "name": "fromToken",
              "type": "address"
            },
            {
              "internalType": "address",
              "name": "toToken",
              "type": "address"
            },
            {
              "internalType": "uint256",
              "name": "expiry",
              "type": "uint256"
            },
            {
              "internalType": "uint256",
              "name": "fromAmount",
              "type": "uint256"
            },
            {
              "internalType": "uint256",
              "name": "fillAmount",
              "type": "uint256"
            },
            {
              "internalType": "uint256",
              "name": "feeRate",
              "type": "uint256"
            },
            {
              "internalType": "uint256",
              "name": "fromChain",
              "type": "uint256"
            },
            {
              "internalType": "uint256",
              "name": "toChain",
              "type": "uint256"
            },
            {
              "internalType": "bytes32",
              "name": "postHookHash",
              "type": "bytes32"
            }
          ],
          "indexed": false,
          "internalType": "struct ISpoke.Order",
          "name": "order",
          "type": "tuple"
        }
      ],
      "name": "OrderFilled",
      "type": "event"
    },
    {
      "anonymous": false,
      "inputs": [
        {
          "indexed": true,
          "internalType": "bytes32",
          "name": "orderHash",
          "type": "bytes32"
        }
      ],
      "name": "OrderRefunded",
      "type": "event"
    },
    {
      "anonymous": false,
      "inputs": [
        {
          "indexed": true,
          "internalType": "bytes32",
          "name": "orderHash",
          "type": "bytes32"
        }
      ],
      "name": "OrderSettled",
      "type": "event"
    },
    {
      "anonymous": false,
      "inputs": [
        {
          "indexed": true,
          "internalType": "address",
          "name": "previousOwner",
          "type": "address"
        },
        {
          "indexed": true,
          "internalType": "address",
          "name": "newOwner",
          "type": "address"
        }
      ],
      "name": "OwnershipTransferred",
      "type": "event"
    },
    {
      "anonymous": false,
      "inputs": [
        {
          "indexed": false,
          "internalType": "uint32",
          "name": "eid",
          "type": "uint32"
        },
        {
          "indexed": false,
          "internalType": "bytes32",
          "name": "peer",
          "type": "bytes32"
        }
      ],
      "name": "PeerSet",
      "type": "event"
    },
    {
      "anonymous": false,
      "inputs": [
        {
          "indexed": true,
          "internalType": "bytes32",
          "name": "orderHash",
          "type": "bytes32"
        }
      ],
      "name": "SettlementForwarded",
      "type": "event"
    },
    {
      "anonymous": false,
      "inputs": [
        {
          "indexed": false,
          "internalType": "address",
          "name": "feeCollector",
          "type": "address"
        },
        {
          "indexed": false,
          "internalType": "address",
          "name": "admin",
          "type": "address"
        },
        {
          "indexed": false,
          "internalType": "address",
          "name": "relayer",
          "type": "address"
        }
      ],
      "name": "SpokeInitialized",
      "type": "event"
    },
    {
      "anonymous": false,
      "inputs": [
        {
          "indexed": true,
          "internalType": "bytes32",
          "name": "orderHash",
          "type": "bytes32"
        }
      ],
      "name": "TokensReleased",
      "type": "event"
    },
    {
      "anonymous": false,
      "inputs": [
        {
          "indexed": false,
          "internalType": "string",
          "name": "chain",
          "type": "string"
        }
      ],
      "name": "TrustedAddressRemoved",
      "type": "event"
    },
    {
      "anonymous": false,
      "inputs": [
        {
          "indexed": false,
          "internalType": "string",
          "name": "chain",
          "type": "string"
        },
        {
          "indexed": false,
          "internalType": "string",
          "name": "address_",
          "type": "string"
        }
      ],
      "name": "TrustedAddressSet",
      "type": "event"
    },
    {
      "inputs": [
        {
          "internalType": "address",
          "name": "_addr",
          "type": "address"
        }
      ],
      "name": "addressToBytes32",
      "outputs": [
        {
          "internalType": "bytes32",
          "name": "",
          "type": "bytes32"
        }
      ],
      "stateMutability": "pure",
      "type": "function"
    },
    {
      "inputs": [],
      "name": "admin",
      "outputs": [
        {
          "internalType": "address",
          "name": "",
          "type": "address"
        }
      ],
      "stateMutability": "view",
      "type": "function"
    },
    {
      "inputs": [
        {
          "components": [
            {
              "internalType": "uint32",
              "name": "srcEid",
              "type": "uint32"
            },
            {
              "internalType": "bytes32",
              "name": "sender",
              "type": "bytes32"
            },
            {
              "internalType": "uint64",
              "name": "nonce",
              "type": "uint64"
            }
          ],
          "internalType": "struct Origin",
          "name": "origin",
          "type": "tuple"
        }
      ],
      "name": "allowInitializePath",
      "outputs": [
        {
          "internalType": "bool",
          "name": "",
          "type": "bool"
        }
      ],
      "stateMutability": "view",
      "type": "function"
    },
    {
      "inputs": [],
      "name": "chainName",
      "outputs": [
        {
          "internalType": "string",
          "name": "chainName_",
          "type": "string"
        }
      ],
      "stateMutability": "view",
      "type": "function"
    },
    {
      "inputs": [
        {
          "internalType": "address[]",
          "name": "tokens",
          "type": "address[]"
        }
      ],
      "name": "collectFees",
      "outputs": [],
      "stateMutability": "nonpayable",
      "type": "function"
    },
    {
      "inputs": [
        {
          "components": [
            {
              "internalType": "address",
              "name": "fromAddress",
              "type": "address"
            },
            {
              "internalType": "string",
              "name": "toAddress",
              "type": "string"
            },
            {
              "internalType": "address",
              "name": "filler",
              "type": "address"
            },
            {
              "internalType": "address",
              "name": "fromToken",
              "type": "address"
            },
            {
              "internalType": "address",
              "name": "toToken",
              "type": "address"
            },
            {
              "internalType": "uint256",
              "name": "expiry",
              "type": "uint256"
            },
            {
              "internalType": "uint256",
              "name": "fromAmount",
              "type": "uint256"
            },
            {
              "internalType": "uint256",
              "name": "fillAmount",
              "type": "uint256"
            },
            {
              "internalType": "uint256",
              "name": "feeRate",
              "type": "uint256"
            },
            {
              "internalType": "uint256",
              "name": "fromChain",
              "type": "uint256"
            },
            {
              "internalType": "uint256",
              "name": "toChain",
              "type": "uint256"
            },
            {
              "internalType": "bytes32",
              "name": "postHookHash",
              "type": "bytes32"
            }
          ],
          "internalType": "struct ISpoke.Order",
          "name": "order",
          "type": "tuple"
        }
      ],
      "name": "createOrder",
      "outputs": [],
      "stateMutability": "payable",
      "type": "function"
    },
    {
      "inputs": [],
      "name": "endpoint",
      "outputs": [
        {
          "internalType": "contract ILayerZeroEndpointV2",
          "name": "",
          "type": "address"
        }
      ],
      "stateMutability": "view",
      "type": "function"
    },
    {
      "inputs": [
        {
          "internalType": "bytes32",
          "name": "commandId",
          "type": "bytes32"
        },
        {
          "internalType": "string",
          "name": "sourceChain",
          "type": "string"
        },
        {
          "internalType": "string",
          "name": "sourceAddress",
          "type": "string"
        },
        {
          "internalType": "bytes",
          "name": "payload",
          "type": "bytes"
        }
      ],
      "name": "execute",
      "outputs": [],
      "stateMutability": "nonpayable",
      "type": "function"
    },
    {
      "inputs": [
        {
          "internalType": "bytes32",
          "name": "commandId",
          "type": "bytes32"
        },
        {
          "internalType": "string",
          "name": "sourceChain",
          "type": "string"
        },
        {
          "internalType": "string",
          "name": "sourceAddress",
          "type": "string"
        },
        {
          "internalType": "bytes",
          "name": "payload",
          "type": "bytes"
        },
        {
          "internalType": "string",
          "name": "tokenSymbol",
          "type": "string"
        },
        {
          "internalType": "uint256",
          "name": "amount",
          "type": "uint256"
        }
      ],
      "name": "executeWithToken",
      "outputs": [],
      "stateMutability": "nonpayable",
      "type": "function"
    },
    {
      "inputs": [],
      "name": "feeCollector",
      "outputs": [
        {
          "internalType": "address",
          "name": "",
          "type": "address"
        }
      ],
      "stateMutability": "view",
      "type": "function"
    },
    {
      "inputs": [
        {
          "internalType": "bytes32[]",
          "name": "orderHashes",
          "type": "bytes32[]"
        },
        {
          "internalType": "uint256",
          "name": "lzFee",
          "type": "uint256"
        },
        {
          "internalType": "uint128",
          "name": "gasLimit",
          "type": "uint128"
        },
        {
          "internalType": "enum ICoral.Provider",
          "name": "provider",
          "type": "uint8"
        }
      ],
      "name": "forwardSettlements",
      "outputs": [],
      "stateMutability": "payable",
      "type": "function"
    },
    {
      "inputs": [],
      "name": "gasService",
      "outputs": [
        {
          "internalType": "contract IAxelarGasService",
          "name": "",
          "type": "address"
        }
      ],
      "stateMutability": "view",
      "type": "function"
    },
    {
      "inputs": [],
      "name": "gateway",
      "outputs": [
        {
          "internalType": "contract IAxelarGateway",
          "name": "",
          "type": "address"
        }
      ],
      "stateMutability": "view",
      "type": "function"
    },
    {
      "inputs": [],
      "name": "hubAddress",
      "outputs": [
        {
          "internalType": "string",
          "name": "",
          "type": "string"
        }
      ],
      "stateMutability": "view",
      "type": "function"
    },
    {
      "inputs": [],
      "name": "hubAddressBytes32",
      "outputs": [
        {
          "internalType": "bytes32",
          "name": "",
          "type": "bytes32"
        }
      ],
      "stateMutability": "view",
      "type": "function"
    },
    {
      "inputs": [],
      "name": "hubChainName",
      "outputs": [
        {
          "internalType": "string",
          "name": "",
          "type": "string"
        }
      ],
      "stateMutability": "view",
      "type": "function"
    },
    {
      "inputs": [],
      "name": "hubEndpoint",
      "outputs": [
        {
          "internalType": "uint32",
          "name": "",
          "type": "uint32"
        }
      ],
      "stateMutability": "view",
      "type": "function"
    },
    {
      "inputs": [
        {
          "internalType": "address",
          "name": "_feeCollector",
          "type": "address"
        },
        {
          "internalType": "address",
          "name": "_owner",
          "type": "address"
        },
        {
          "internalType": "address",
          "name": "_admin",
          "type": "address"
        },
        {
          "internalType": "address",
          "name": "_relayer",
          "type": "address"
        }
      ],
      "name": "initialize",
      "outputs": [],
      "stateMutability": "nonpayable",
      "type": "function"
    },
    {
      "inputs": [
        {
          "components": [
            {
              "internalType": "uint32",
              "name": "srcEid",
              "type": "uint32"
            },
            {
              "internalType": "bytes32",
              "name": "sender",
              "type": "bytes32"
            },
            {
              "internalType": "uint64",
              "name": "nonce",
              "type": "uint64"
            }
          ],
          "internalType": "struct Origin",
          "name": "",
          "type": "tuple"
        },
        {
          "internalType": "bytes",
          "name": "",
          "type": "bytes"
        },
        {
          "internalType": "address",
          "name": "_sender",
          "type": "address"
        }
      ],
      "name": "isComposeMsgSender",
      "outputs": [
        {
          "internalType": "bool",
          "name": "",
          "type": "bool"
        }
      ],
      "stateMutability": "view",
      "type": "function"
    },
    {
      "inputs": [
        {
          "internalType": "string",
          "name": "chain",
          "type": "string"
        },
        {
          "internalType": "string",
          "name": "address_",
          "type": "string"
        }
      ],
      "name": "isTrustedAddress",
      "outputs": [
        {
          "internalType": "bool",
          "name": "",
          "type": "bool"
        }
      ],
      "stateMutability": "view",
      "type": "function"
    },
    {
      "inputs": [
        {
          "components": [
            {
              "internalType": "uint32",
              "name": "srcEid",
              "type": "uint32"
            },
            {
              "internalType": "bytes32",
              "name": "sender",
              "type": "bytes32"
            },
            {
              "internalType": "uint64",
              "name": "nonce",
              "type": "uint64"
            }
          ],
          "internalType": "struct Origin",
          "name": "_origin",
          "type": "tuple"
        },
        {
          "internalType": "bytes32",
          "name": "_guid",
          "type": "bytes32"
        },
        {
          "internalType": "bytes",
          "name": "_message",
          "type": "bytes"
        },
        {
          "internalType": "address",
          "name": "_executor",
          "type": "address"
        },
        {
          "internalType": "bytes",
          "name": "_extraData",
          "type": "bytes"
        }
      ],
      "name": "lzReceive",
      "outputs": [],
      "stateMutability": "payable",
      "type": "function"
    },
    {
      "inputs": [
        {
          "internalType": "bytes32",
          "name": "orderHash",
          "type": "bytes32"
        }
      ],
      "name": "markOrderSettled",
      "outputs": [],
      "stateMutability": "nonpayable",
      "type": "function"
    },
    {
      "inputs": [
        {
          "internalType": "uint32",
          "name": "",
          "type": "uint32"
        },
        {
          "internalType": "bytes32",
          "name": "",
          "type": "bytes32"
        }
      ],
      "name": "nextNonce",
      "outputs": [
        {
          "internalType": "uint64",
          "name": "nonce",
          "type": "uint64"
        }
      ],
      "stateMutability": "view",
      "type": "function"
    },
    {
      "inputs": [],
      "name": "oAppVersion",
      "outputs": [
        {
          "internalType": "uint64",
          "name": "senderVersion",
          "type": "uint64"
        },
        {
          "internalType": "uint64",
          "name": "receiverVersion",
          "type": "uint64"
        }
      ],
      "stateMutability": "pure",
      "type": "function"
    },
    {
      "inputs": [
        {
          "internalType": "bytes32",
          "name": "",
          "type": "bytes32"
        }
      ],
      "name": "orderHashToStatus",
      "outputs": [
        {
          "internalType": "enum ISpoke.OrderStatus",
          "name": "",
          "type": "uint8"
        }
      ],
      "stateMutability": "view",
      "type": "function"
    },
    {
      "inputs": [],
      "name": "owner",
      "outputs": [
        {
          "internalType": "address",
          "name": "",
          "type": "address"
        }
      ],
      "stateMutability": "view",
      "type": "function"
    },
    {
      "inputs": [
        {
          "internalType": "uint32",
          "name": "eid",
          "type": "uint32"
        }
      ],
      "name": "peers",
      "outputs": [
        {
          "internalType": "bytes32",
          "name": "peer",
          "type": "bytes32"
        }
      ],
      "stateMutability": "view",
      "type": "function"
    },
    {
      "inputs": [
        {
          "internalType": "uint32",
          "name": "_dstEid",
          "type": "uint32"
        },
        {
          "internalType": "bytes32[]",
          "name": "orderHashes",
          "type": "bytes32[]"
        },
        {
          "internalType": "uint128",
          "name": "gasLimit",
          "type": "uint128"
        },
        {
          "internalType": "bool",
          "name": "_payInLzToken",
          "type": "bool"
        }
      ],
      "name": "quote",
      "outputs": [
        {
          "internalType": "uint256",
          "name": "nativeFee",
          "type": "uint256"
        },
        {
          "internalType": "uint256",
          "name": "lzTokenFee",
          "type": "uint256"
        }
      ],
      "stateMutability": "view",
      "type": "function"
    },
    {
      "inputs": [
        {
          "components": [
            {
              "internalType": "address",
              "name": "fromAddress",
              "type": "address"
            },
            {
              "internalType": "string",
              "name": "toAddress",
              "type": "string"
            },
            {
              "internalType": "address",
              "name": "filler",
              "type": "address"
            },
            {
              "internalType": "address",
              "name": "fromToken",
              "type": "address"
            },
            {
              "internalType": "address",
              "name": "toToken",
              "type": "address"
            },
            {
              "internalType": "uint256",
              "name": "expiry",
              "type": "uint256"
            },
            {
              "internalType": "uint256",
              "name": "fromAmount",
              "type": "uint256"
            },
            {
              "internalType": "uint256",
              "name": "fillAmount",
              "type": "uint256"
            },
            {
              "internalType": "uint256",
              "name": "feeRate",
              "type": "uint256"
            },
            {
              "internalType": "uint256",
              "name": "fromChain",
              "type": "uint256"
            },
            {
              "internalType": "uint256",
              "name": "toChain",
              "type": "uint256"
            },
            {
              "internalType": "bytes32",
              "name": "postHookHash",
              "type": "bytes32"
            }
          ],
          "internalType": "struct ISpoke.Order",
          "name": "order",
          "type": "tuple"
        }
      ],
      "name": "refundOrder",
      "outputs": [],
      "stateMutability": "nonpayable",
      "type": "function"
    },
    {
      "inputs": [],
      "name": "relayer",
      "outputs": [
        {
          "internalType": "address",
          "name": "",
          "type": "address"
        }
      ],
      "stateMutability": "view",
      "type": "function"
    },
    {
      "inputs": [],
      "name": "renounceOwnership",
      "outputs": [],
      "stateMutability": "nonpayable",
      "type": "function"
    },
    {
      "inputs": [
        {
          "internalType": "address",
          "name": "_destination",
          "type": "address"
        },
        {
          "internalType": "address",
          "name": "_token",
          "type": "address"
        },
        {
          "internalType": "uint256",
          "name": "_amount",
          "type": "uint256"
        }
      ],
      "name": "salvage",
      "outputs": [],
      "stateMutability": "nonpayable",
      "type": "function"
    },
    {
      "inputs": [
        {
          "internalType": "address",
          "name": "_delegate",
          "type": "address"
        }
      ],
      "name": "setDelegate",
      "outputs": [],
      "stateMutability": "nonpayable",
      "type": "function"
    },
    {
      "inputs": [
        {
          "internalType": "uint32",
          "name": "_eid",
          "type": "uint32"
        },
        {
          "internalType": "bytes32",
          "name": "_peer",
          "type": "bytes32"
        }
      ],
      "name": "setPeer",
      "outputs": [],
      "stateMutability": "nonpayable",
      "type": "function"
    },
    {
      "inputs": [
        {
          "internalType": "bytes32",
          "name": "",
          "type": "bytes32"
        }
      ],
      "name": "settlementToStatus",
      "outputs": [
        {
          "internalType": "enum ISpoke.SettlementStatus",
          "name": "",
          "type": "uint8"
        }
      ],
      "stateMutability": "view",
      "type": "function"
    },
    {
      "inputs": [],
      "name": "squidMulticall",
      "outputs": [
        {
          "internalType": "contract ISquidMulticall",
          "name": "",
          "type": "address"
        }
      ],
      "stateMutability": "view",
      "type": "function"
    },
    {
      "inputs": [
        {
          "internalType": "address",
          "name": "",
          "type": "address"
        }
      ],
      "name": "tokenToCollectedFees",
      "outputs": [
        {
          "internalType": "uint256",
          "name": "",
          "type": "uint256"
        }
      ],
      "stateMutability": "view",
      "type": "function"
    },
    {
      "inputs": [
        {
          "internalType": "address",
          "name": "newOwner",
          "type": "address"
        }
      ],
      "name": "transferOwnership",
      "outputs": [],
      "stateMutability": "nonpayable",
      "type": "function"
    },
    {
      "inputs": [
        {
          "internalType": "string",
          "name": "chain",
          "type": "string"
        }
      ],
      "name": "trustedAddress",
      "outputs": [
        {
          "internalType": "string",
          "name": "trustedAddress_",
          "type": "string"
        }
      ],
      "stateMutability": "view",
      "type": "function"
    },
    {
      "inputs": [
        {
          "internalType": "string",
          "name": "chain",
          "type": "string"
        }
      ],
      "name": "trustedAddressHash",
      "outputs": [
        {
          "internalType": "bytes32",
          "name": "trustedAddressHash_",
          "type": "bytes32"
        }
      ],
      "stateMutability": "view",
      "type": "function"
    },
    {
      "inputs": [
        {
          "internalType": "address",
          "name": "_admin",
          "type": "address"
        },
        {
          "internalType": "address",
          "name": "_relayer",
          "type": "address"
        }
      ],
      "name": "updateConfig",
      "outputs": [],
      "stateMutability": "nonpayable",
      "type": "function"
    }
  ],
  "bytecode": "0x608080604052346100a85733156100925760008054336001600160a01b0319808316821784559290916001600160a01b0316907f8be0079c531659141344cd1fd0a4f28419497f9722a3daafe3b4186f6b6457e09080a373c012a11111111111111111111111111111111111908181600154161760015560035416176003556001600455604051612dc290816100ae8239f35b631e4fbdf760e01b815260006004820152602490fd5b600080fdfe6080604052600436101561001257600080fd5b60003560e01c80630630dea4146102a7578063076e9f6c146102a25780631113ef521461029d578063116191b61461029857806313137d651461029357806317442b701461028e5780631a98b2e0146102895780631c93b03a1461028457806321b4ae781461027f5780632b8cb1f61461027a5780633400288b14610275578063477aedc714610270578063491606581461026b57806358c0f7291461026657806359ce62e9146102615780635e280f111461025c578063631f8006146102575780636a22d8cc14610252578063715018a61461024d57806373164f91146102485780637d25a05e1461024357806382413eac1461023e57806382c947b71461023957806382e5f9e4146102345780638406c0791461022f578063867ebfc81461022a5780638da5cb5b14610225578063951f401614610220578063a32b52a71461021b578063bb0b6a5314610216578063c415b95c14610211578063c506bff41461020c578063ca5eb5e114610207578063db715f7b14610202578063e118c5ae146101fd578063f2fde38b146101f8578063f69b1b29146101f3578063f851a440146101ee578063f8c8765e146101e9578063ff7bd03d146101e45763ffd5982a146101df57600080fd5b611c9f565b611c59565b611aff565b611ad6565b611ab2565b611a5c565b6119fd565b6119c0565b61192a565b6118c6565b61189d565b611862565b61182a565b611802565b6117d9565b611650565b611627565b6115e8565b61148e565b611430565b611409565b611335565b6112ec565b6112c3565b611146565b6110eb565b6110c2565b610f55565b610e47565b610d2f565b610b72565b610b4e565b6109fc565b6108ff565b610814565b6107f2565b61071b565b6106b4565b61063c565b6105dc565b61030e565b9181601f840112156102dc578235916001600160401b0383116102dc576020808501948460051b0101116102dc57565b600080fd5b604435906001600160801b03821682036102dc57565b600211156102dc57565b359061030c826102f7565b565b60803660031901126102dc57600480356001600160401b0381116102dc5761033990369083016102ac565b90916103436102e1565b9260643590610351826102f7565b610359612011565b34156105965783156105855760005b8481106104e05750610394906103866040519586926020840161218a565b03601f198101855284610c65565b61039d816121b3565b8061047957509091506103b96103b4600854610614565b610614565b803b156102dc5760006040518092630c93e3bb60e01b825281806103e13389308a85016121bd565b039134905af1801561046157610466575b506104016103b4600354610614565b91823b156102dc5761042b9260009283604051809681958294631c92115f60e01b8452830161220c565b03925af1801561046157610448575b505b6104466001600455565b005b8061045561045b92610bfc565b806106a9565b3861043a565b612005565b8061045561047392610bfc565b386103f2565b806104856001926121b3565b036104d1575061049f6104cb9261049a61223e565b612258565b906104af600f5463ffffffff1690565b916104b8610c88565b9134835260243560208401523393612b34565b5061043c565b604051633b136dc160e11b8152fd5b6105096105026104f1838886612175565b356000526007602052604060002090565b5460ff1690565b61051281611820565b15610574578061053961052c6104f161056f948987612175565b805460ff19166002179055565b610544818785612175565b357f69f975bd70ea51b973eb6aff3812f49adf595bd59d6f3d29840d5695cc19ba30600080a2612150565b610368565b604051634811daf560e01b81528490fd5b604051634ec4810560e11b81528390fd5b6040516301d776cb60e11b81528390fd5b6000526006602052604060002090565b634e487b7160e01b600052602160045260246000fd5b600411156105d757565b6105b7565b346102dc5760203660031901126102dc57600435600052600660205260ff6040600020541660405160048210156105d7576020918152f35b6001600160a01b031690565b6001600160a01b038116036102dc57565b359061030c82610620565b346102dc5760603660031901126102dc5760043561065981610620565b60243561066581610620565b61066d612011565b600b546001600160a01b039290831633036106975761069092604435921661206c565b6001600455005b604051634755657960e01b8152600490fd5b60009103126102dc57565b346102dc5760003660031901126102dc576003546040516001600160a01b039091168152602090f35b60609060031901126102dc57600490565b9181601f840112156102dc578235916001600160401b0383116102dc57602083818601950101116102dc57565b60e03660031901126102dc57610730366106dd565b6001600160401b036084358181116102dc576107509036906004016106ee565b9161075c60a435610620565b60c4359081116102dc576107749036906004016106ee565b50506001546001600160a01b031633036107da5761079961079484612951565b6129c8565b9260208101358094036107b057610446935061295b565b6107ba8491612951565b6107d660405192839263309afaf360e21b845260048401612939565b0390fd5b6040516391ac5e4f60e01b8152336004820152602490fd5b346102dc5760003660031901126102dc57604080516001815260026020820152f35b346102dc5760c03660031901126102dc576001600160401b036024358181116102dc576108459036906004016106ee565b6044358381116102dc5761085d9036906004016106ee565b6064929192358581116102dc576108789036906004016106ee565b916084359687116102dc576108946104469736906004016106ee565b95909460a43597600435612863565b60005b8381106108b65750506000910152565b81810151838201526020016108a6565b906020916108df815180928185528580860191016108a3565b601f01601f1916010190565b9060206108fc9281815201906108c6565b90565b346102dc576000806003193601126109e157604051817f0e2c162a1f4b5cff9fdbd6b34678a9bcb9898a0b9fbca695b112d61688d8b2ac8054610941816114bf565b808552916001918083169081156109b6575060011461097b575b6109778561096b81890382610c65565b604051918291826108eb565b0390f35b835260208084209095505b8284106109a357505050816109779361096b92820101933861095b565b8054858501870152928501928101610986565b9050610977965061096b9450602092508593915060ff191682840152151560051b820101933861095b565b80fd5b63ffffffff8116036102dc57565b801515036102dc57565b346102dc5760803660031901126102dc57600435610a19816109e4565b6024356001600160401b0381116102dc57610a8191610a3f610af49236906004016102ac565b610ad8610a4d9392936102e1565b610a8960643591610a5d836109f2565b6040988997610a7389519788926020840161218a565b03601f198101875286610c65565b61049a61223e565b610a91612a00565b50610aa06103b4600154610614565b93610aaa866129c8565b610ac1610ab5610c95565b63ffffffff9098168852565b602087015286860152606085015215156080840152565b82518080958194631bb8518b60e31b8352309060048401612a55565b03915afa90811561046157600091610b21575b508051602091820151925190815290810191909152604090f35b610b419150823d8411610b47575b610b398183610c65565b810190612a41565b38610b07565b503d610b2f565b346102dc5760003660031901126102dc57602063ffffffff600f5416604051908152f35b346102dc5760403660031901126102dc577f238399d427b947898edb290f5ff0f9109849b1c3ba196a42e35f00c50a54b98b600435610bb0816109e4565b60243590610bbc611d2e565b63ffffffff8116600052600260205281604060002055610be160405192839283612939565b0390a1005b634e487b7160e01b600052604160045260246000fd5b6001600160401b038111610c0f57604052565b610be6565b604081019081106001600160401b03821117610c0f57604052565b606081019081106001600160401b03821117610c0f57604052565b60a081019081106001600160401b03821117610c0f57604052565b601f909101601f19168101906001600160401b03821190821017610c0f57604052565b6040519061030c82610c14565b6040519061030c82610c4a565b6001600160401b038111610c0f57601f01601f191660200190565b929192610cc982610ca2565b91610cd76040519384610c65565b8294818452818301116102dc578281602093846000960137010152565b60206003198201126102dc57600435906001600160401b0382116102dc57806023830112156102dc578160246108fc93600401359101610cbd565b346102dc57610d3d36610cf4565b60405190602091610d9081610d82858201947fa5b4aa1bcb538076d57d083e3004c6907e2eba42d84c21922d441967a02b472f865260408084015260608301906108c6565b03601f198101835282610c65565b51902090604051918260008254610da6816114bf565b93848452600191868382169182600014610e25575050600114610de6575b5050610dd292500383610c65565b6109776040519282849384528301906108c6565b85925060005281600020906000915b858310610e0d575050610dd293508201013880610dc4565b80548389018501528794508693909201918101610df5565b9250935050610dd294915060ff191682840152151560051b8201013880610dc4565b346102dc5760803660031901126102dc576024356001600160401b038082116102dc57610e79600492369084016106ee565b916044358181116102dc57610e9190369086016106ee565b916064359081116102dc57610ea990369087016106ee565b94909382602083610ebb368a8a610cbd565b8281519101208460008c610ef360018060a01b0360035416948c604051998a9889978896635f6970c360e01b8852803590880161237c565b03925af190811561046157600091610f27575b5015610f165761044696506123b2565b604051631403112d60e21b81528790fd5b610f48915060203d8111610f4e575b610f408183610c65565b810190612367565b38610f06565b503d610f36565b346102dc5760203660031901126102dc576004356001600160401b0381116102dc57610f859036906004016102ac565b600a805491926001600160a01b0392831633036110b057831561109e5760005b848110610fae57005b80610fcd610fc8610fc361101b948987612175565b611f5d565b6119a6565b5480611020575b610fde8554610614565b8680610fee610fc3868c8a612175565b1691167f9bcb6d1f38f6800906185471a11ede9a8e16200853225aa62558db6076490f2d600080a4612150565b610fa5565b6000611033610fc8610fc3858b89612175565b5573eeeeeeeeeeeeeeeeeeeeeeeeeeeeeeeeeeeeeeee86611058610fc3858b89612175565b1603611079576110748161106f6103b48854610614565b6120bb565b610fd4565b6110748161108e6103b4610fc3868c8a612175565b6110988854610614565b9061206c565b604051634ec4810560e11b8152600490fd5b604051639103459960e01b8152600490fd5b346102dc5760003660031901126102dc576009546040516001600160a01b039091168152602090f35b346102dc5760003660031901126102dc576001546040516001600160a01b039091168152602090f35b600319906020818301126102dc57600435916001600160401b0383116102dc5782610180920301126102dc5760040190565b346102dc5761115436611114565b61115c612011565b604051602081019061117281610d828585611e6d565b519020906001611184610502846105a7565b61118d816105cd565b036112b1576111a16103b460408301611f5d565b3303611284575b4661012082013503611272576111cd6111c0836105a7565b805460ff19166003179055565b606081019073eeeeeeeeeeeeeeeeeeeeeeeeeeeeeeeeeeeeeeee6001600160a01b036111f884611f5d565b16036112495761121a915060c06112116103b483611f5d565b910135906120bb565b7fa60671d8537ed193e567f86ddf28cf35dc67073b5ad80a2d41359cfa78db0a1e600080a26104466001600455565b6112586103b461126d93611f5d565b9060c061126482611f5d565b9101359161206c565b61121a565b604051639284b19760e01b8152600490fd5b61129a61129460a083013561204a565b42111590565b156111a85760405163796c85f360e01b8152600490fd5b60405163ab81a57d60e01b8152600490fd5b346102dc5760003660031901126102dc576008546040516001600160a01b039091168152602090f35b346102dc576000806003193601126109e157611306611d2e565b80546001600160a01b03198116825581906001600160a01b0316600080516020612d4d8339815191528280a380f35b346102dc5760203660031901126102dc57600c54600435906001600160a01b031633036113f757600090808252600660205260ff60408320541660048110156105d7576001036113b25761138b61052c826105a7565b7fd4250d6114a611e75d68b1c6f14c61e967863d8ac20bc8ebfa4e5f28f66473668280a280f35b60405162461bcd60e51b815260206004820152601d60248201527f4f72646572206973206e6f7420696e20435245415445442073746174650000006044820152606490fd5b6040516308af1bb760e31b8152600490fd5b346102dc5760403660031901126102dc576114256004356109e4565b602060405160008152f35b346102dc5760a03660031901126102dc5761144a366106dd565b506064356001600160401b0381116102dc5761146a9036906004016106ee565b5050602060843561147a81610620565b6040516001600160a01b0390911630148152f35b346102dc5760203660031901126102dc5760206004356114ad81610620565b6040516001600160a01b039091168152f35b90600182811c921680156114ef575b60208310146114d957565b634e487b7160e01b600052602260045260246000fd5b91607f16916114ce565b600d5460009291611509826114bf565b908181526001928381169081600014611563575060011461152957505050565b90929350600d6000526020928360002092846000945b83861061154f5750505050010190565b80548587018301529401938590820161153f565b91935050602093945060ff191683830152151560051b010190565b600e546000929161158e826114bf565b90818152600192838116908160001461156357506001146115ae57505050565b90929350600e6000526020928360002092846000945b8386106115d45750505050010190565b8054858701830152940193859082016115c4565b346102dc5760003660031901126102dc576109776040516116138161160c816114f9565b0382610c65565b6040519182916020835260208301906108c6565b346102dc5760003660031901126102dc57600c546040516001600160a01b039091168152602090f35b61165936611114565b611661612011565b6040908151602081019061167981610d828585611e6d565b51902091611689610502846105a7565b611692816105cd565b6117c95760a08201354210156117b95746610120830135036117a9576060820173eeeeeeeeeeeeeeeeeeeeeeeeeeeeeeeeeeeeeeee806001600160a01b036116d984611f5d565b161415806117a0575b61178f576116ff6116f2866105a7565b805460ff19166001179055565b61170b6103b483611f5d565b03611758575060c0820135340361174857600080516020612d0d8339815191529161173b915b5191829182611e6d565b0390a26104466001600455565b5163113a2f4b60e21b8152600490fd5b9161173b9161178a61177b6103b4600080516020612d0d83398151915296611f5d565b60c08401359030903390611f67565b611731565b825163d453e7b560e01b8152600490fd5b503415156116e2565b51639284b19760e01b8152600490fd5b516362b439dd60e11b8152600490fd5b5163966753c560e01b8152600490fd5b346102dc5760003660031901126102dc576000546040516001600160a01b039091168152602090f35b346102dc5760003660031901126102dc576020601054604051908152f35b600311156105d757565b346102dc5760203660031901126102dc57600435600052600760205260ff6040600020541660405160038210156105d7576020918152f35b346102dc5760203660031901126102dc5763ffffffff600435611884816109e4565b1660005260026020526020604060002054604051908152f35b346102dc5760003660031901126102dc57600a546040516001600160a01b039091168152602090f35b346102dc5760403660031901126102dc576001600160401b036004358181116102dc576118f79036906004016106ee565b6024929192359182116102dc576020926119186119209336906004016106ee565b929091611d08565b6040519015158152f35b346102dc57600060203660031901126109e15760043561194981610620565b611951611d2e565b6001546001600160a01b0390811691839190833b156119a25760249083604051958694859363ca5eb5e160e01b85521660048401525af1801561046157611996575080f35b61199f90610bfc565b80f35b8280fd5b6001600160a01b0316600090815260056020526040902090565b346102dc5760203660031901126102dc576004356119dd81610620565b60018060a01b031660005260056020526020604060002054604051908152f35b346102dc5760403660031901126102dc57600435611a1a81610620565b602435611a2681610620565b611a2e611d2e565b600b80546001600160a01b039384166001600160a01b031991821617909155600c8054929093169116179055005b346102dc5760203660031901126102dc57600435611a7981610620565b611a81611d2e565b6001600160a01b03811615611a995761044690611d5a565b604051631e4fbdf760e01b815260006004820152602490fd5b346102dc5760003660031901126102dc576109776040516116138161160c8161157e565b346102dc5760003660031901126102dc57600b546040516001600160a01b039091168152602090f35b346102dc5760803660031901126102dc57600435611b1c81610620565b60243590611b2982610620565b604435611b3581610620565b60643590611b4282610620565b600080516020612d6d83398151915254604081901c60ff161594906001600160401b031680159081611c51575b6001149081611c47575b159081611c3e575b50611c2c57600080516020612d6d83398151915280546001600160401b0319166001179055611bb49385611c0757611d8f565b611bba57005b600080516020612d6d833981519152805460ff60401b19169055604051600181527fc7f505b2f371ae2175ee4913f4499e1f2633a7b5936321eed1cdaeb6115181d2908060208101610be1565b600080516020612d6d833981519152805460ff60401b1916600160401b179055611d8f565b60405163f92ee8a960e01b8152600490fd5b90501538611b81565b303b159150611b79565b869150611b6f565b346102dc5760603660031901126102dc576020611c75366106dd565b63ffffffff8135611c85816109e4565b166000526002825260406000205482604051920135148152f35b346102dc576020611cb7611cb236610cf4565b611cbf565b604051908152f35b604051611d0181610d8260208201947f5f58fea7d48d37d5d1cc2546dfcc3d3cbfe8d758d5ca19c44087f52e15a10505865260408084015260608301906108c6565b5190205490565b611d1b611d2a93611cb293953691610cbd565b60208151910120933691610cbd565b1490565b6000546001600160a01b03163303611d4257565b60405163118cdaa760e01b8152336004820152602490fd5b600080546001600160a01b039283166001600160a01b0319821681178355921690600080516020612d4d8339815191529080a3565b91929092611d9b611d2e565b6001600160a01b039184831615611a995782606094611dda7f9104a706912016413c79fce25c7e3257842efe9025533e146a57e843a35fcac997611d5a565b16928060018060a01b0319938585600a541617600a5516918284600b541617600b55168092600c541617600c5560405192835260208301526040820152a1565b9035601e19823603018112156102dc570160208101919035906001600160401b0382116102dc5781360383136102dc57565b908060209392818452848401376000828201840152601f01601f1916010190565b60208152611e8e60208201611e8184610631565b6001600160a01b03169052565b611eb5611e9e6020840184611e1a565b9190610180928360408601526101a0850191611e4c565b92611ed5611ec560408301610631565b6001600160a01b03166060850152565b611ef4611ee460608301610631565b6001600160a01b03166080850152565b611f13611f0360808301610631565b6001600160a01b031660a0850152565b60a081013560c084015260c081013560e08401526101009060e081013582850152610120918101358285015261014091810135828501526101609181013582850152013591015290565b356108fc81610620565b6040516323b872dd60e01b60208201526001600160a01b03928316602482015292909116604483015260648083019390935291815261030c91611fa982610c4a565b906000602091828151910182855af115612005576000513d611ffc57506001600160a01b0381163b155b611fda5750565b604051635274afe760e01b81526001600160a01b039091166004820152602490fd5b60011415611fd3565b6040513d6000823e3d90fd5b600260045414612022576002600455565b604051633ee5aeb560e01b8152600490fd5b634e487b7160e01b600052601160045260246000fd5b9062015180820180921161205a57565b612034565b9190820180921161205a57565b60405163a9059cbb60e01b60208201526001600160a01b03909216602483015260448083019390935291815260808101916001600160401b03831182841017610c0f5761030c92604052611fa9565b81471061212f57600080808094819460018060a01b03165af13d15612126573d6120e481610ca2565b906120f26040519283610c65565b8152809260203d92013e5b156121055750565b80511561211457602081519101fd5b60405163d6bda27560e01b8152600490fd5b606091506120fd565b5060405163cf47918160e01b81524760048201526024810191909152604490fd5b600019811461205a5760010190565b634e487b7160e01b600052603260045260246000fd5b91908110156121855760051b0190565b61215f565b602080825281018390526001600160fb1b0383116102dc5760409260051b809284830137010190565b600211156105d757565b919061220560809295949560018060a01b03809316855260a060208601526121f76121ea60a087016114f9565b868103604088015261157e565b9085820360608701526108c6565b9416910152565b6108fc9160608252612230612223606084016114f9565b838103602085015261157e565b9160408184039101526108c6565b604051600360f01b6020820152600281526108fc81610c14565b9061ffff9160038361226983612cc0565b16036122f05760405160809290921b6001600160801b03191660208301526010825261229482610c14565b6003836122a083612cc0565b16036122f05781518381116122d157831660010192831161205a57610d826108fc9260405194859360208501612312565b604490604051906306dfcc6560e41b8252601060048301526024820152fd5b826122fc602492612cc0565b604051633a51740d60e01b815291166004820152fd5b6020906123296004959493828151948592016108a3565b600160f81b910181815260f09290921b6001600160f01b03191660018301526003820152815191612362908390858401906020016108a3565b010190565b908160209103126102dc57516108fc816109f2565b96959490606094926123ad9461239f928a52608060208b015260808a0191611e4c565b918783036040890152611e4c565b930152565b906123be939291611d08565b15612480576123cf9181019061256f565b9194919290916001600160a01b03909116906123ea816121b3565b8061244f57506001835114801590612443575b8015612437575b61109e5761243161242461241d61241d61030c986125fc565b51946125fc565b516001600160a01b031690565b9361261d565b50600182511415612404565b506001855114156123fd565b8061246060019297949596976121b3565b0361246e5761030c946126fa565b604051632180994160e11b8152600490fd5b60405163ca37de9360e01b8152600490fd5b6001600160401b038111610c0f5760051b60200190565b81601f820112156102dc578035916124c083612492565b926124ce6040519485610c65565b808452602092838086019260051b8201019283116102dc578301905b8282106124f8575050505090565b813581529083019083016124ea565b81601f820112156102dc5780359161251e83612492565b9261252c6040519485610c65565b808452602092838086019260051b8201019283116102dc578301905b828210612556575050505090565b838091833561256481610620565b815201910190612548565b91909160c0818403126102dc5761258581610301565b926001600160401b0360208301358181116102dc57826125a69185016124a9565b936125b360408501610631565b9360608101358381116102dc57846125cc9183016124a9565b9360808201358481116102dc57816125e59184016124a9565b9360a08301359081116102dc576108fc9201612507565b8051156121855760200190565b80518210156121855760209160051b010190565b929390949161262a612011565b83511561109e57600095865b8551811015612693576126498187612609565b51906001612659610502846105a7565b612662816105cd565b036112b1578161267761052c61268e946105a7565b600080516020612d2d8339815191528a80a2612150565b612636565b509295509250926126ae6126a6856119a6565b91825461205f565b90556001600160a01b0392831673eeeeeeeeeeeeeeeeeeeeeeeeeeeeeeeeeeeeeeee81036126eb57506126e192166120bb565b61030c6001600455565b6126f5935061206c565b6126e1565b9392949190612707612011565b8451158015612857575b801561284b575b8015612840575b61109e5760005b8551811015612784576127398187612609565b51906001612749610502846105a7565b612752816105cd565b036112b1578161276761052c61277f946105a7565b600080516020612d2d833981519152600080a2612150565b612726565b50919350919360005b855181101561283057806127a46128069284612609565b516127b86126a6610fc8612424858c612609565b905573eeeeeeeeeeeeeeeeeeeeeeeeeeeeeeeeeeeeeeee6127df6103b4612424848b612609565b0361280b576128016127f18287612609565b516001600160a01b0386166120bb565b612150565b61278d565b61280161281e6103b4612424848b612609565b856128298489612609565b519161206c565b50505050905061030c6001600455565b50600284511061271f565b50855184511415612718565b50815184511415612711565b926020986128e892986128806128c09c95986000989a3691610cbd565b8b8151910120926128d460018060a01b03600354169a6040519e8f9d8e9c8d9b631876eed960e01b8d5260048d015260c060248d015260c48c0191611e4c565b9060031993848b84030160448c0152611e4c565b936064880152868403016084870152611e4c565b9060a483015203925af19081156104615760009161291b575b501561290957565b604051631403112d60e21b8152600490fd5b612933915060203d8111610f4e57610f408183610c65565b38612901565b6020909392919363ffffffff60408201951681520152565b356108fc816109e4565b6010546020820135036129b65761297190612951565b63ffffffff612991612988600f5463ffffffff1690565b63ffffffff1690565b9116036129a4576123cf9181019061256f565b60405163c670567560e01b8152600490fd5b604051631712770960e21b8152600490fd5b63ffffffff168060005260026020526040600020549081156129e8575090565b6024906040519063f6ff4fb760e01b82526004820152fd5b60405190612a0d82610c14565b60006020838281520152565b91908260409103126102dc57604051612a3181610c14565b6020808294805184520151910152565b906040828203126102dc576108fc91612a19565b906020909392936040835263ffffffff81511660408401528181015160608401526080612aa9612a93604084015160a08488015260e08701906108c6565b6060840151868203603f190160a08801526108c6565b910151151560c08401526001600160a01b03909416910152565b60405190612ad082610c2f565b8160008152600060208201526040612ae6612a00565b910152565b6080818303126102dc5760405191612b0283610c2f565b8151835260208201516001600160401b03811681036102dc576020840152612b2c91604001612a19565b604082015290565b608093612b9f612bbb9694612b47612ac3565b506020612b548451612c08565b930190815180612bf9575b50612b6e6103b4600154610614565b95612b78866129c8565b9251151592612b88610ab5610c95565b602087015260408601526060850152151586840152565b6040518096819582946302637a4560e41b845260048401612a55565b03925af190811561046157600091612bd1575090565b6108fc915060803d8111612bf2575b612bea8183610c65565b810190612aeb565b503d612be0565b612c0290612c2a565b38612b5f565b803403612c125790565b6040516304fb820960e51b8152346004820152602490fd5b60015460405163393f876560e21b81526001600160a01b03918216929190602081600481875afa90811561046157600091612c86575b5016918215612c745761030c923390611f67565b6040516329b99a9560e11b8152600490fd5b906020823d8211612cb8575b81612c9f60209383610c65565b810103126109e1575051612cb281610620565b38612c60565b3d9150612c92565b6002815110612cd0576002015190565b60405162461bcd60e51b8152602060048201526014602482015273746f55696e7431365f6f75744f66426f756e647360601b6044820152606490fdfe8ee278799dfd22052dbf9f79695495702109c7ef2480fdf9268c902da3c0db15d48052bf92f3eec93ecdeeec72ea80e1071c926cb4d6e5a37ee71be8a0ce9a108be0079c531659141344cd1fd0a4f28419497f9722a3daafe3b4186f6b6457e0f0c57e16840df040f15088dc2f81fe391c3923bec73e23a9662efc9c229c6a00a26469706673582212206e247dfaf587bff46288ddc38413e9de41079444c500fa9b7c51b91616cf989464736f6c63430008140033",
  "linkReferences": {},
  "deployedLinkReferences": {}
}